:0B07D20081D7C8C296A2A0C78082A9F0
:03079000011C0049
:0A06B6001207615390F77F067E00E3
:1006C000C3EE6480948040167D727C00ED1D700145
:0E06D0001CBCFFF8BDFFF5EF1F70E51E80E2B9
:0106DE0022F9
:0E07B50000007F037E1A7DDFDDFEDEFCDFFA32
:0107C3002213
:10076100EF9007D293FFE4FEEF1392B0C2B1D2B182
:08077100EFC313FF0EBE08F0F8
:01077900225D
:04045300AB07AA0643
:100457007C037DE81202CB8F107C037DE8AF03AEEF
:10046700021202CB7E007F64CFCDCFCECCCE12025C
:10047700CB8F117C007D64AF03AE021202CB7E00EE
:100487007F0ACFCDCFCECCCE1202CB8F12AE02AF2A
:10049700037C007D0A1202CBAB05C2B743900FAFB6
:1004A700101206B643900FAF111207615390FB125B
:1004B70006BC43900FAF121207615390FD1206BCA2
:1004C70043900FAF031207615390FE1206BC43908F
:0104D7000F15
:0104D8002201
:1004D900E508C4540FF510E508540FF511E509C4F2
:1004E900540FFBE509540FFAE50AC4540FFEE50A57
:1004F900540FF9E50BC4540FF512E50B540FF5131E
:10050900E50CC4540FF514E50C540FF51543900F81
:10051900AF061206B643900FAF011207615390FB65
:100529001206BC43900FAF031207615390FD1206E8
:10053900BC43900FAF021207615390FE1206BC43F1
:02054900900F11
:01054B00228D
:1007A500438901758C4CE4F58AD2AFD2A9D28C224B
:0707DD00D288D2A8D2AF229E
:030003000206DF13
:1006DF00C0D075D000C005C006C007C2AF1207B5A5
:1006EF0020B20943900F6319FF6318FFD2AFD007F1
:0706FF00D006D005D0D03277
:100606001207A51207DDE5196401451870081207DF
:100616007A1204D980F0120706750F28E50FD394D5
:0D0626000040E312032E120453150F80EF65
:03000B00020746A3
:10074600C0E0C0D0758C4C758A00051CE51CB40A47
:0B07560005751C00B2B7D0D0D0E03217
:0E07C40080828486888A8C81838587898B8DCC
:09079300070800500806120519C0
:10066000E4FD7F8E120633E4F51DE51D9007C4936B
:10067000FF7408251DF8E6FD120633051DE51DC3B0
:0B068000940740E67D807F8E02063369
:1005D400E4FEC296C295D296FDC295EF139294D2D0
:1005E40095EFC313FF0DBD08F0E4FDD295EEC313E0
:1005F400FEC2953094034306800DBD08EEC296AF4B
:0106040006EF
:0106050022D2
:10063300C296C295D296E4FEEF139294D295EFC37D
:1006430013FFC2950EBE08F0E4FEED139294D2950B
:0C065300EDC313FDC2950EBE08F0C29668
:01065F002278
:10077A00E4FCEC9007CB93FF1205D474082CF8A67E
:05078A00070CBC07EDA7
:01078F002247
:08079C00021600000218000122
:10068B00C2977F787E00EF1F70011EEF4E70F7D27E
:10069B0097E4FEFF3097110FBF00010ED3EF94309C
:0A06AB00EE947540EF7F00227F01FE
:0106B5002222
:10059900E4FEFDC29700D2977B087A00EB1B70013D
:1005A9001AEB4A70F7A297E433FF7A007B0FEB1B33
:1005B90070011AEB4A70F7EFC43333335480FCEE01
:0A05C900C3134CFE0DBD08CBAF06B6
:0105D3002205
:10054C00E4FEEF139200EFC313FF300020C2977A42
:10055C00007B08EB1B70011AEB4A70F7D2977A00FC
:10056C007B0FEB1B70011AEB4A70F7801BC2977A5A
:10057C00007B0FEB1B70011AEB4A70F7D2970BBB89
:0C058C0000010A0BBB00010A0EBE08B6FD
:010598002240
:1007060012068BEF7009FF1207615390FB80F17F91
:10071600017E001206C07FCC12054C7F4402054CB8
:1007260012068BEF7009FF1207615390FB80F17F71
:10073600017E001206C07FCC12054C7FBE02054C1E
:10032E00E4F510F511F515F514F513F5121207068F
:10033E00120726120599A9071205997510008F113B
:10034E00E511751100F510AF01EF4211C3E51094E0
:10035E0000502FE5111511700215106311FF631077
:10036E00FFAC10AD11E41202118F158E148D138C8B
:10037E0012E4FFFE7DC87C40AB15AA14A913A81287
:10038E00801FAC10AD11E41202118F158E148D1357
:10039E008C12AC10AD11E4120211E4FBFA79C8789C
:1003AE0040120106E4FBFAF9783F12001512024AD8
:0803BE008E108F11AE10AF117B
:0103C6002214
:10000E000202B6E86480F8E933E83360110460F068
:10001E00ED33EC337009E8FCE9FDEAFEEBFF220458
:10002E0060DED3EB9FEA9EE99DE8C2E78CF0C2F753
:10003E0095F0400CE8CCF8E9CDF9EACEFAEBCFFB1F
:10004E0012028185D0F05804700320D5B3E80470F5
:10005E00075002B2D50202C092D5EC0460F7E4CC90
:10006E00C0E0C398F8603B94186008400DD0E0FBE8
:10007E00020298E4FBFAC9FC8028E830E406E4C9E1
:10008E00FBE4CAFCE830E305E4C9CACBFCE854073C
:10009E006010F8C3E913F9EA13FAEB13FBEC13FC47
:1000AE00D8F130F52FC3E49CFCEF9BFFEE9AFEEDEA
:1000BE0099FDD0E0FBEF4E4D4C701222DB03020295
:1000CE00BDEC2CFCEF33FFEE33FEED33FDED30E7F0
:1000DE00EB020298EF2BFFEE3AFEED39FDD0E0FB7E
:1000EE0050130BBB00030202C0ED13FDEE13FEEF27
:0800FE0013FFEC13FC02029851
:10010600EC4D6011E8497017ED33EC3304600DE4F3
:10011600FCFFFEFD22E933E8330470F80202B61252
:10012600028158046009E4CC248150062850090253
:1001360002C02840030202BDC0E0EB4A7044B98009
:1001460006D0E0FB0202ACEF4E701CBD8008EBFF50
:10015600EAFEE9FD80EBE98DF0A4FEE5F00201EF91
:10016600E9CDF9EAFEEBFFEF89F0A4FCE5F0CE89D4
:10017600F0A42EFFE435F0CD89F0A42DFEE435F091
:100186008067EF4E7005BD80D780C3EF8BF0A4ACBF
:10019600F0EE8BF0A42CFCE435F0F8EF8AF0A42CFA
:1001A600E5F038FCE433CB8DF0A42CFCE5F03BF80D
:1001B600EE8AF0A42CFCE5F038F8E433CF89F0A4FD
:1001C6002CFCE5F038CF3400CE89F0A42FFFE5F003
:1001D6003EFEE433C98DF0A42EFEE5F039CD8AF05B
:1001E600A42FFFE5F03EFEE43DFD33D0E0FB5007D3
:1001F6000BBB000F0202C0EC2CFCEF33FFEE33FE0C
:06020600ED33FD02029839
:10020C0075F020800E75F010800575F0087D007E6D
:10021C00007F003392D530D503120320EC3340100D
:10022C00EF33FFEE33FEED33FDEC33FCD5F0ED2276
:0E023C00E5F0247EA2D513CC92E7CDCEFF22B2
:10024A00EDD2E7CD33EC3392D524814006E4FFFEAC
:10025A00FDFC22FCE4CFCECDCC24E0501174FF800B
:10026A00EDC3CC13CCCD13CDCE13CECF13CF0470A8
:07027A00F030D5DE02032085
:10028100E9D2E7C933E833F892D5EDD2E7CD33ECC3
:0702910033FC5002B2D5223C
:10029800EC30E7100FBF000C0EBE00080DBD0004C7
:1002A8000BEB6014A2D5EB13FCED92E7FD2274FF73
:1002B800FCFDFEFF22E480F8A2D574FF13FC7D80CC
:0302C800E480EFE0
:030000000203C731
:0C03C700787FE4F6D8FD75812002040E5A
:1002CB00BC000BBE0029EF8DF084FFADF022E4CC17
:1002DB00F875F008EF2FFFEE33FEEC33FCEE9DECE0
:1002EB00984005FCEE9DFE0FD5F0E9E4CEFD22ED26
:1002FB00F8F5F0EE8420D21CFEADF075F008EF2F70
:10030B00FFED33FD4007985006D5F0F222C398FD60
:05031B000FD5F0EA22FD
:0E032000C3E49FFFE49EFEE49DFDE49CFC22EE
:1003D300020606E493A3F8E493A34003F68001F234
:1003E30008DFF48029E493A3F85407240CC8C3332B
:1003F300C4540F4420C8834004F456800146F6DFFA
:10040300E4800B0102040810204080900790E47EF2
:10041300019360BCA3FF543F30E509541FFEE493EE
:10042300A360010ECF54C025E060A840B8E493A3B5
:10043300FAE493A3F8E493A3C8C582C8CAC583CAE0
:10044300F0A3C8C582C8CAC583CADFE9DEE780BE98
:0107A4000054
:00000001FF
